S00E00006176724D43552E73726563E8
S11300003DC3000058C3000056C3000054C30000A1
S113001052C3000050C300004EC300004CC3000094
S11300204AC3000048C3000046C3000044C30000A4
S113003042C3000040C300003EC300003CC30000B4
S11300403AC3000038C3000036C3000034C30000C4
S113005032C3000030C300002EC300002CC30000D4
S11300602AC3000028C3000026C3000024C30000E4
S113007022C3000020C300001EC300001CC30000F4
S11300801AC3000018C3000016C3000000000000DB
S1130090000000000000000000000000000000104C
S11300A01010101010100000101000000012242472
S11300B048000000000000000000000000000012E2
S11300C012127E2424247E24242400000000083CF0
S11300D04A4A48380C0A0A4A4A3C080800000044C4
S11300E0A4A8A8B0541A2A2A4A44000000000030E8
S11300F0484848506EA494988976000000602020F7
S1130100400000000000000000000000000204089D
S113011008101010101010080804020000402010ED
S1130120100808080808081010204000000000000B
S11301301010D63838D6101000000000000000005F
S1130140000808087F0808080000000000000000FC
S113015000000000000000006020204000000000BB
S1130160000000007E00000000000000000000000D
S113017000000000000000006060000000000204B5
S1130180040408081010102020404000000000184B
S11301902442424242424242241800000000000825
S11301A03808080808080808083E00000000003C59
S11301B04242420204081020427E00000000003C3B
S11301C04242020418040242423C000000000004BF
S11301D00C0C142424447F04041F00000000007E3F
S11301E040404078440202424438000000000018B5
S11301F02440405C62424242221C00000000007E17
S11302004204040808101010101000000000003C04
S11302104242422418244242423C0000000000387A
S113022044424242463A0202241800000000000000
S1130230000018180000000018180000000000005A
S11302400000001000000000001010100000000268
S113025004081020402010080402000000000000E0
S113026000007E00007E000000000000000000404E
S11302702010080402040810204000000000003C84
S11302804242620408080800181800000000003800
S1130290445AAAAAAAAAAA5C423C00000000001080
S11302A010182828243C444242E70000000000F8CB
S11302B0444444784442424244F800000000003E72
S11302C0424280808080804244380000000000F870
S11302D0444242424242424244F80000000000FCD0
S11302E0424848784848404242FC0000000000FC74
S11302F0424848784848404040E000000000003C44
S113030044448080808E844444380000000000E728
S1130310424242427E42424242E700000000007CE8
S11303201010101010101010107C00000000003E7F
S11303300808080808080808080888F0000000EE03
S1130340444850705048484444EE0000000000E027
S1130350404040404040404042FE0000000000EE6B
S11303606C6C6C6C6C54545454D60000000000C780
S1130370626252524A4A4A4646E20000000000388D
S1130380448282828282828244380000000000FC1F
S1130390424242427C40404040E0000000000038BD
S11303A044828282828282B24C380600000000FCC1
S11303B04242427C4848444442E300000000003E7C
S11303C04242402018040242427C0000000000FE29
S11303D0921010101010101010380000000000E7E8
S11303E04242424242424242423C0000000000E794
S11303F0424244242428281810100000000000D68B
S113040054545454546C282828280000000000E751
S1130410422424181818242442E70000000000EEA7
S11304204444282810101010103800000000007EEA
S1130430840408081020204242FC0000001E101012
S1130440101010101010101010101E00000040208A
S11304502020101010080804040402020078080880
S11304600808080808080808080878000018240084
S11304700000000000000000000000000000000078
S11304800000000000000000000000FF00601000F9
S11304900000000000000000000000000000000058
S11304A000000038440C34444C36000000000000C6
S11304B0C0404058644242426458000000000000BA
S11304C00000001C22404040221C000000000000EC
S11304D00602023E42424242463B00000000000047
S11304E00000003C42427E40423C0000000000000C
S11304F00C12107C10101010107C00000000000082
S11305000000003E444438403C42423C00000000AD
S1130510C040405C6242424242E7000000000030BA
S11305203000007010101010107C00000000000C4F
S11305300C00001C040404040404447800000000BB
S1130540C040404E4850704844EE00000000001087
S11305507010101010101010107C0000000000002B
S1130560000000FE4949494949ED0000000000002F
S1130570000000DC6242424242E70000000000004A
S11305800000003C42424242423C000000000000A5
S1130590000000D864424242645840E00000000079
S11305A00000001A26424242261A020700000000F8
S11305B0000000EE3220202020F80000000000009F
S11305C00000003E42403C02427C0000000000006B
S11305D00010107C10101010120C0000000000001D
S11305E0000000C642424242463B000000000000B8
S11305F0000000EE44442828101000000000000011
S1130600000000DB894A5A54242400000000000042
S11306100000007624181818246E00000000000062
S1130620000000E7422424181810106000000000A5
S11306300000007E44081010227E00000003040421
S11306400404040408040404040403000808080857
S113065008080808080808080808080800C0202036
S113066020202020102020202020C000205A040018
S113067000000000000000000000000011241FBE64
S1130680CFEFD0E1DEBFCDBF13E0A0E0B1E0ECE4FA
S1130690FEE000E00BBF02C007900D92A636B10742
S11306A0D9F72EE0A6E6B3E001C01D92AA32B20744
S11306B0E1F7C5D3C9C3A4CC54D3019731F06AE0A0
S11306C070E080E090E0D3D2F7CF0895CF93C82FA5
S11306D081E090E03AD380E090E031D364EF71E0C0
S11306E080E090E0B5D28C2F29D364EF71E080E0F4
S11306F090E0AED281E090E0CF9121C3CF93C82F98
S113070080E090E022D380E090E019D364EF71E0C0
S113071080E090E09DD28C2F11D364EF71E080E0F3
S113072090E096D281E090E00AD381E090E0CF910E
S11307300CC38F929F92AF92BF92CF92DF92EF92AF
S1130740FF92CF93DF937C014A015B0180E090E04C
S1130750F6D264EF71E080E090E07AD2E701C12C38
S1130760D12C7601C814D904EA04FB0441F0899120
S1130770E5D28FEFC81AD80AE80AF80AF3CF64EF73
S113078071E080E090E064D281E090E0DF91CF916D
S1130790FF90EF90DF90CF90BF90AF909F908F909D
S11307A0CEC2CF93DF9300D0CDB7DEB78FEC898371
S11307B08DE88A8365E070E080E090E058D281E0C3
S11307C090E0C9D265E070E080E090E050D280E033
S11307D090E0C1D26AE070E080E090E048D281E02D
S11307E090E0B9D265E070E080E090E040D281E032
S11307F090E0A5D261E070E080E090E038D280E043
S11308007DDF8EE063DF58DF85EE78DF89E15EDF30
S113081080EE74DF82E05ADF80E070DF42E050E077
S113082060E070E0CE01019684DF0F900F90DF91BD
S1130830CF910895CF93DF9380E160DF44EC5AE0D9
S113084060E070E086E693E074DF83E157DF80E0E8
S113085090E075D264EF71E080E090E0F9D1C0E0FF
S1130860D0E080E06BD22196C43C8AE0D807C9F777
S113087064EF71E080E090E0EBD181E090E0DF9103
S1130880CF915DC219DF84E039DF80E01FDF14DF20
S113089082E134DF80E01ADF0FCF82E02FDF82E0D5
S11308A02DDF0ACF813029F0823031F455E54AEA50
S11308B005C05FEF4FEF02C050E040E026E633E0B2
S11308C080E090E080FD02C0A52F01C0A42FF901B3
S11308D060E070E0A1936F5F7F4F6D307105D1F7D9
S11308E00196235F3F4F843D910561F70895683673
S11308F068F593ED981B892F943D40F5E62FE69516
S1130900E695E695F0E09DE0899FE00DF11D112448
S113091060956770442319F0413069F00895EA59ED
S1130920FC4F81E090E001C0880F6A95EAF780955A
S1130930908189230AC0EA59FC4F81E090E001C00C
S1130940880F6A95EAF79081892B80830895EF9246
S1130950FF920F931F93CF93DF93D82F162FE42E7C
S1130960F22EC0E0CE1571F0402F612F8D2FBFDF26
S1130970FF2029F081E0F81203C01F5F01C0DF5F90
S1130980CF5FF0CFDF91CF911F910F91FF90EF9048
S11309900895AF92BF92CF92DF92EF92FF920F939E
S11309A01F93CF93DF93883608F046C0643D08F068
S11309B043C0E42FF0E0E80FF11DE936F1050CF037
S11309C03BC0A22EB12CF501E60FF11DE53DF1056A
S11309D09CF5F02E122FD42EC62FD82F0E2D20E0EA
S11309E0B6DF6FEF6A0D6C0F20E04D2D8D2FAFDF5A
S11309F01250CF5F21E0412F6C2F8D2FA8DF8FEF96
S1130A008D0D21E0412F6C2F8D0FA1DFF11014C04B
S1130A1082E0A81AB1081EEF1D0DDF5F8F2D90E054
S1130A208A159B054CF40C2D20E0412F6C2F8D2F43
S1130A308EDFCF5FF394F2CFDF91CF911F910F91AF
S1130A40FF90EF90DF90CF90BF90AF9008958F927A
S1130A509F92AF92BF92CF92DF92EF92FF920F9349
S1130A601F93CF93DF93211129C0A02EB62E082FF8
S1130A70405280E1489FE0011124C12CD12C88E030
S1130A80882E800E9B2C9C0CFE01EC0DFD1DE45762
S1130A90FF4F1491F02E17FF02C04A2D01C04E2DB6
S1130AA0692D8F2D24DF110FF3948F10F4CF8FEF66
S1130AB0C81AD80A80E1C816D10421F788E0DF916A
S1130AC0CF911F910F91FF90EF90DF90CF90BF9047
S1130AD0AF909F908F900895BF92CF92DF92EF9244
S1130AE0FF920F931F93CF93DF93C82FD62F122F0C
S1130AF0F02EBE2C6A01F60141916F0180EE840F45
S1130B008F3540F4EB2C0F2D212F6D2F8C2F9FDF71
S1130B10C80FF1CF4111EFCF8C2FDF91CF911F91EF
S1130B200F91FF90EF90DF90CF90BF9008952F9298
S1130B303F924F925F926F927F928F929F92AF9269
S1130B40BF92CF92DF92EF92FF920F931F93CF93B6
S1130B50DF9300D01F92CDB7DEB7F82E6A8337E655
S1130B60381708F45FC0643D08F05CC0842F90E03F
S1130B708F0D911D893691050CF054C0822F90E0A1
S1130B80860F911D853D91050CF04CC0642E669432
S1130B9066946694762E720E4F2C88E0689E400C04
S1130BA01124142F1770312E340C862C912C9A8119
S1130BB09715C1F12C2C5601FB828A2D82198615BA
S1130BC0B0F4F50151905F01FB81F85FF98357FEA2
S1130BD002C0402F01C04E2D6A818B8188DE550CE6
S1130BE03B813F5F3B8389813813F1CFE6CFC80C4B
S1130BF0D91C112399F04982F601808187FF02C034
S1130C00402F01C04E2D6A81898171DEF981FF5F19
S1130C10F983F311F1CF3FEFC31AD30A8A818F5FAF
S1130C208A83C5CF0F900F900F90DF91CF911F91C2
S1130C300F91FF90EF90DF90CF90BF90AF909F9077
S1130C408F907F906F905F904F903F902F9008957A
S1130C50611571058105910549F022E02A95F1F7A6
S1130C6000C06150710981099109F2CF089561159D
S1130C7071058105910559F0EFECF7E03197F1F733
S1130C8000C000006150710981099109F0CF0895F5
S1130C9083E887BBC198C798089580ED82B91C98F2
S1130CA01F9A1E9AC09A0895C198000087FF02C037
S1130CB0C79A01C0C798C19A0000C198000086FF76
S1130CC002C0C79A01C0C798C19A0000C198000029
S1130CD085FF02C0C79A01C0C798C19A0000C19895
S1130CE0000084FF02C0C79A01C0C798C19A0000DF
S1130CF0C198000083FF02C0C79A01C0C798C19A77
S1130D000000C198000082FF02C0C79A01C0C798C2
S1130D10C19A0000C198000081FF02C0C79A01C0B7
S1130D20C798C19A0000C198000080FF02C0C79A0A
S1130D3001C0C798C19A0000C1980895B5CF892B06
S1130D4011F0C09A0895C0980895892B11F01F9A44
S1130D5008951F980895892B11F01E9A08951E98DE
S1130D60089581B185FB882780F990E00895CF929A
S1130D70DF92EF920F9381E095DD5CDD83DD8DDD05
S1130D8068EE73E080E090E072DF80E08BDD41E0AC
S1130D9060E080E0ACDD01E020E04AE062E080E079
S1130DA0D6DD20E047ED63E080E0D1DD21E04AE0DC
S1130DB064E080E0CCDDC12CEE24E39400E02AE082
S1130DC04AE060E180E0E5DD01E02AE04AE060E13C
S1130DD084E1DFDDE12C20E040E051E06EE180E0E1
S1130DE07BDE20E04AE051E06EE180E075DE80E5E4
S1130DF0C82E81E0D82E29E248E662E380E097DE3F
S1130E0020E040E351E064E680E066DE20E04CE36D
S1130E1051E064E784E160DE20E045E451E064E809
S1130E208CE25ADE20E048E451E064E988E254DED2
S1130E3001DD28DD0F91EF90DF90CF902ECD28DFDC
S10F0E402CDFAFDC94DFFFCFF894FFCF71
S1130E4C464F4E5420544553540041424344454666
S1130E5C4748494A4B4C4D4E4F505152535455569A
S1130E6C5758595A313233343435363738393000CF
S1130E7C5549443A35353732333830004465736953
S1130E8C676E656400427900737A6F6E67656E00F5
S1130E9C0000000000000000000000000000000042
S1130EAC080000000000000000000000001C00000E
S1130EBC00000000000000000000380000000000EA
S1130ECC00000000010000300000000000000000E1
S1130EDC0001C00060001C0000003C00000001F098
S1130EEC00E0007C0000007C000000007C01C000DD
S1130EFC3C00008078000180001F0180003C00034E
S1130F0CC07800038000078380003C0001C0780097
S1130F1C03800003E700083C0001C07C0003807FD1
S1130F2CFFFFFFFC3C0001C03C000380600000009C
S1130F3C0C3C0009C03C001380600000000C1C0039
S1130F4C2DCB3C00799E67FFFFFFCC1C002DCB3CC6
S1130F5C00799E6FFFFFFFCC1C003CCB3C0069DE8C
S1130F6C6C000000CC1E003CCB3C0029DE6C000065
S1130F7C00CC1E0000C01C0001C06C000000CC1E84
S1130F8C001CC01C0039C06C000180CC1E001CEF7E
S1130F9C1C003DCE6C0E01E0CC0E001CEF1C003D81
S1130FACCE6C7C00F0CC0FE01EEF1FC01CCE6CF09E
S1130FBC003CCC0FFE1EE71FFE1CCE6CC0000ECCFA
S1130FCC0FFF8EE71FFF9CCE6C000000CC0FBFEE12
S1130FDC671FBFDCCE6C021080CC0F87EE671F8FAF
S1130FECDCCE6C0638C0CC0FC7EE670F8FCCCE6C42
S1130FFC073980CC0FCFCE670F9F8EEE6C03FF802A
S113100CCC0FFF86670FBF0E4E6C01EF00CC07FEB2
S113101C04070FFE080E6C000000CC07F800000F4C
S113102CF000006C000000CC04000000080000007C
S113103C6FFFFFFFCC000000000000000067FFFF03
S113104CFFCC0000000000000000600000000C0059
S113105C000000000000007FFFFFFFFC0000010AFD
S113106C50A800007FFFFFFFFC155551C21C202324
S113107C140660000CC0155551AA54A854AA07E0D4
S113108C000F800E38E1AA54A844AA03C0000780BC
S113109C0A28A4CA5CA9732A0000000000000000FE
S10910AC0000000000003A
S9030000FC
