S00E00006176724D43552E73726563E8
S113000045C0000060C000005EC000005CC000008D
S11300105AC0000058C0000056C0000054C0000080
S113002052C0000050C000004EC000004CC0000090
S11300304AC0000048C0000046C0000044C00000A0
S113004042C0000040C000003EC000003CC00000B0
S11300503AC0000038C0000036C0000034C00000C0
S113006032C0000030C000002EC000002CC00000D0
S11300702AC0000028C0000026C0000024C00000E0
S113008022C0000020C000001EC0000011241FBEBA
S1130090CFEFD0E1DEBFCDBF11E0A0E0B1E0ECE4F2
S11300A0F4E000E00BBF02C007900D92A030B1074E
S11300B0D9F72BE0A0E0B1E001C01D92A43CB20747
S11300C0E1F7A7D1C1C19CCF9ED1019731F06AE07D
S11300D070E080E090E01DD1F7CF0895CF93C82F52
S11300E081E090E084D180E090E07BD164EF71E026
S11300F080E090E0FFD08C2F73D164EF71E080E05A
S113010090E0F8D081E090E0CF916BC1CF93C82FFD
S113011080E090E06CD180E090E063D164EF71E026
S113012080E090E0E7D08C2F5BD164EF71E080E059
S113013090E0E0D081E090E054D181E090E0CF9174
S113014056C18F929F92AF92BF92CF92DF92EF925D
S1130150FF92CF93DF937C014A015B0180E090E042
S113016040D164EF71E080E090E0C4D0E701C12C9D
S1130170D12C7601C814D904EA04FB0441F0899116
S11301802FD18FEFC81AD80AE80AF80AF3CF64EF20
S113019071E080E090E0AED081E090E0DF91CF911B
S11301A0FF90EF90DF90CF90BF90AF909F908F9093
S11301B018C1CF93DF9300D0CDB7DEB78FEC89831E
S11301C08DE88A8365E070E080E090E0A2D081E071
S11301D090E013D165E070E080E090E09AD080E098
S11301E090E00BD16AE070E080E090E092D081E092
S11301F090E003D165E070E080E090E08AD081E097
S113020090E0EFD061E070E080E090E082D080E0A8
S11302107DDF8EE063DF58DF85EE78DF89E15EDF26
S113022080EE74DF82E05ADF80E070DF42E050E06D
S113023060E070E0CE01019684DF0F900F90DF91B3
S1130240CF910895CF93DF9380E160DF44EC5AE0CF
S113025060E070E080E091E074DF83E157DF80E0EC
S113026090E0BFD064EF71E080E090E043D0C0E064
S1130270D0E080E0B5D02196C43C8AE0D807C9F725
S113028064EF71E080E090E035D081E090E0DF91B0
S1130290CF91A7C019DF84E039DF80E01FDF14DFCE
S11302A082E134DF80E01ADF0FCF813029F0823021
S11302B031F455E54AEA05C05FEF4FEF02C050E064
S11302C040E020E031E080E090E080FD02C0A52F16
S11302D001C0A42FF90160E070E0A1936F5F7F4F2C
S11302E06D307105D1F70196235F3F4F843D910531
S11302F061F70895611571058105910549F022E0C2
S11303002A95F1F700C06150710981099109F2CF72
S11303100895611571058105910559F0EFECF7E039
S11303203197F1F700C0000061507109810991090A
S1130330F0CF08958BE087BBC198C398089580EDF2
S113034082B91C981F9A1E9AC09A0895C1980000F9
S113035087FF02C0C39A01C0C398C19A0000C19824
S1130360000086FF02C0C39A01C0C398C19A00006E
S1130370C198000085FF02C0C39A01C0C398C19A06
S11303800000C198000084FF02C0C39A01C0C39852
S1130390C19A0000C198000083FF02C0C39A01C043
S11303A0C398C19A0000C198000082FF02C0C39A9A
S11303B001C0C398C19A0000C198000081FF02C027
S11303C0C39A01C0C398C19A0000C198000080FF7D
S11303D002C0C39A01C0C398C19A0000C19808958D
S11303E0B5CF892B11F0C09A0895C0980895892B30
S11303F011F01F9A08951F980895892B11F01E9AE1
S113040008951E98089581B185FB882780F990E0AE
S1130410089590DF94DFCDDE8FEF8ABBCFEFCBBBA7
S113042081E043DF0FDF36DF68EB7BE080E090E0C4
S113043070DF1BBA80E039DF05DF2CDF68EB7BE07F
S10F044080E090E066DFEBCFF894FFCF83
S9030000FC
