S00E00006176724D43552E73726563E8
S11300000C94A0080C94B5080C94B5080C94B5088D
S11300100C94B5080C94B5080C94B5080C94B50868
S11300200C94B5080C94B5080C94B5080C94B50858
S11300300C94B5080C94B5080C94B5080C94B50848
S11300400C94B5080C94B5080C94B5080C94B50838
S11300500C94B5080C94B5080C94B5080C94B50828
S11300600C94B5080C94B5080C94B5080C94B50818
S11300700C94B5080C94B5080C94B5080C94B50808
S11300800C94B5080C94B5080C94B5080000000055
S1130090000000000000000000000000000000104C
S11300A01010101010100000101000000012242472
S11300B048000000000000000000000000000012E2
S11300C012127E2424247E24242400000000083CF0
S11300D04A4A48380C0A0A4A4A3C080800000044C4
S11300E0A4A8A8B0541A2A2A4A44000000000030E8
S11300F0484848506EA494988976000000602020F7
S1130100400000000000000000000000000204089D
S113011008101010101010080804020000402010ED
S1130120100808080808081010204000000000000B
S11301301010D63838D6101000000000000000005F
S1130140000808087F0808080000000000000000FC
S113015000000000000000006020204000000000BB
S1130160000000007E00000000000000000000000D
S113017000000000000000006060000000000204B5
S1130180040408081010102020404000000000184B
S11301902442424242424242241800000000000825
S11301A03808080808080808083E00000000003C59
S11301B04242420204081020427E00000000003C3B
S11301C04242020418040242423C000000000004BF
S11301D00C0C142424447F04041F00000000007E3F
S11301E040404078440202424438000000000018B5
S11301F02440405C62424242221C00000000007E17
S11302004204040808101010101000000000003C04
S11302104242422418244242423C0000000000387A
S113022044424242463A0202241800000000000000
S1130230000018180000000018180000000000005A
S11302400000001000000000001010100000000268
S113025004081020402010080402000000000000E0
S113026000007E00007E000000000000000000404E
S11302702010080402040810204000000000003C84
S11302804242620408080800181800000000003800
S1130290445AAAAAAAAAAA5C423C00000000001080
S11302A010182828243C444242E70000000000F8CB
S11302B0444444784442424244F800000000003E72
S11302C0424280808080804244380000000000F870
S11302D0444242424242424244F80000000000FCD0
S11302E0424848784848404242FC0000000000FC74
S11302F0424848784848404040E000000000003C44
S113030044448080808E844444380000000000E728
S1130310424242427E42424242E700000000007CE8
S11303201010101010101010107C00000000003E7F
S11303300808080808080808080888F0000000EE03
S1130340444850705048484444EE0000000000E027
S1130350404040404040404042FE0000000000EE6B
S11303606C6C6C6C6C54545454D60000000000C780
S1130370626252524A4A4A4646E20000000000388D
S1130380448282828282828244380000000000FC1F
S1130390424242427C40404040E0000000000038BD
S11303A044828282828282B24C380600000000FCC1
S11303B04242427C4848444442E300000000003E7C
S11303C04242402018040242427C0000000000FE29
S11303D0921010101010101010380000000000E7E8
S11303E04242424242424242423C0000000000E794
S11303F0424244242428281810100000000000D68B
S113040054545454546C282828280000000000E751
S1130410422424181818242442E70000000000EEA7
S11304204444282810101010103800000000007EEA
S1130430840408081020204242FC0000001E101012
S1130440101010101010101010101E00000040208A
S11304502020101010080804040402020078080880
S11304600808080808080808080878000018240084
S11304700000000000000000000000000000000078
S11304800000000000000000000000FF00601000F9
S11304900000000000000000000000000000000058
S11304A000000038440C34444C36000000000000C6
S11304B0C0404058644242426458000000000000BA
S11304C00000001C22404040221C000000000000EC
S11304D00602023E42424242463B00000000000047
S11304E00000003C42427E40423C0000000000000C
S11304F00C12107C10101010107C00000000000082
S11305000000003E444438403C42423C00000000AD
S1130510C040405C6242424242E7000000000030BA
S11305203000007010101010107C00000000000C4F
S11305300C00001C040404040404447800000000BB
S1130540C040404E4850704844EE00000000001087
S11305507010101010101010107C0000000000002B
S1130560000000FE4949494949ED0000000000002F
S1130570000000DC6242424242E70000000000004A
S11305800000003C42424242423C000000000000A5
S1130590000000D864424242645840E00000000079
S11305A00000001A26424242261A020700000000F8
S11305B0000000EE3220202020F80000000000009F
S11305C00000003E42403C02427C0000000000006B
S11305D00010107C10101010120C0000000000001D
S11305E0000000C642424242463B000000000000B8
S11305F0000000EE44442828101000000000000011
S1130600000000DB894A5A54242400000000000042
S11306100000007624181818246E00000000000062
S1130620000000E7422424181810106000000000A5
S11306300000007E44081010227E00000003040421
S11306400404040408040404040403000808080857
S113065008080808080808080808080800C0202036
S113066020202020102020202020C000205A040018
S1130670000000000000000000000000FFFFFFFF7A
S1130680FFFFFFFFFFFFFFFFFFFFFFFFFFFFFFFF76
S1130690FFFFFFFFFFFFFFFFFFFFFFFFFFFFFFFF66
S11306A0FFFFFFFFFFFFFFFFFFFFFFFFFFFFFFFF56
S11306B0FFFFFFFFFFFFFFFFFFFFFFFFFFFFFFFF46
S11306C0FE03FFFFFF00FFFFFFFFFFFFFFFE03FE30
S11306D001FF00FFFFFFFFFFFFFFFE03FE01FF001E
S11306E0FFFFFFFFFFFFFFFE03FE01FF00FFFFFF11
S11306F0FFFFFFFFFE03FE01FF00FFFFFFFFFFFF01
S1130700FFFE03FE01FF00FFFFFFFFFFFFFFFE03ED
S1130710FE01FF00FFFFFFFFFFFFFFFE03FE01FFDF
S113072000FFFFFFFFFFFFFFFE03FE01FF00FFFFCF
S1130730FFFFFFFFFFFE03FE01FF00FFFFFFFFFFC0
S1130740FFFFFE03FE01FF00FFFFFFFFFFFFFFFEB1
S113075003FE01FF00FFFFFFFFFFFFFFFE03FE019B
S1130760FF00FFFFFFFFFFFFFFFE03FE01FF00FF8F
S1130770FFFFFFFFFFFFFE03FE01FF00FFFFFFFF80
S1130780FFFFFFFE03FE01FF00FFFFFFFFFFFFFF70
S1130790FE03FE01FF00FFFFFFFFFFFFFFFE03FE5E
S11307A001FF00FFFFFFFFFFFFFFFE03FE01FF004D
S11307B0FFFFFFFFFFFFFFFE03FE01FF00FFFFFF40
S11307C0FFFFFFFFFE03FE01FF00FFFFFFFFFFFF30
S11307D0FFFE03FE01FF00FFFFFFFFFFFFFFFE031D
S11307E0FE01FF00FFFFFFFFFFFFFFFE03FE01FF0F
S11307F000FFFFFFFFFFFFFFFE03FE01FF00FFFFFF
S1130800FFFFFFFFFFFE03FE01FF00FFFFFFFFFFEF
S1130810FFFFFE03FE01FF00FFFFFFFFFFFFFFFEE0
S113082003FE01FF00FFFFFFFFFFFFFFFE03FE01CA
S1130830FF00FFFFFFFFFFFFFFFE03FE01FF00FFBE
S1130840FFFFFFFFFFFFFE03FE01FF00FFFFFFFFAF
S1130850FFFFFFFE0000000000FFFFFFFFFFFFFFA0
S1130860FE0000000000FFFFFFFFFFFFFFFE00008F
S1130870000000FFFFFFFFFFFFFFFE00000000007D
S1130880FFFFFFFFFFFFFFFE0000000000FFFFFF70
S1130890FFFFFFFFFE0000000000FFFFFFFFFFFF60
S11308A0FFFE0000000000FFFFFFFFFFFFFFFE0050
S11308B000000000FFFFFFFFFFFFFFFFFFFFFFFF40
S11308C0FFFFFFFFFFFFFFFFFFFFFFFFFFFFFFFF34
S11308D0FFFFFFFFFFFFFFFFFFFFFFFFFFFFFFFF24
S11308E0FFFFFFFFFFFFFFFFFFFFFFFFFFFFFFFF14
S11308F0FFFFFFFFFFFFFFFFFFFFFFFFFFFFFFFF04
S1130900FFFFFFFFFFFFFFFFFFFFFFFFFFFFFFFFF3
S1130910FFFFFFFFFFFFFFFFFFFFFFFFFFFFFFFFE3
S1130920FFFFFFFFFFFFFFFFFFFFFFFFFFFFFFFFD3
S1130930FFFFFFFFFFFFFFFFFFFFFFFFFFFFFFFFC3
S1130940FFFFFFFFFFFFFFFFFFFFFFFFFFFFFFFFB3
S1130950FFFFFFFFFFFFFFFFFFFFFFFFFFFFFFFFA3
S1130960FFFFFFFFFFFFFFFFFFFFFFFFFFFFFFFF93
S1130970FFFFFFFFFFFFFFFFFFFFFFFFFFFFFFFF83
S1130980FFFFFFFFFFFFFFFFFFFFFFFFC000780037
S113099007FFFFFFFFFFFFFFFF8000300003FFFFA3
S11309A0FFFFFFFFFFFF0000000001FFFFFFFFFF4D
S11309B0FFFFFE0000000001FFFFFFFFFFFFFFFE3F
S11309C00000000001FFFFFFFFFFFFFFFE0000002B
S11309D00000FFFFFFFFFFFFFFFE0000000000FF1D
S11309E0FFFFFFFFFFFFFE0000000000FFFFFFFF0F
S11309F0FFFFFFFE03FF01FF00FFFFFFFFFFFFFFFD
S1130A00FE03FF01FF00FFFFFFFFFFFFFFFE03FFE9
S1130A1001FF00FFFFFFFFFFFFFFFE03FF01FF00D9
S1130A20FFFFFFFFFFFFFFFE03FF01FF00FFFFFFCC
S1130A30FFFFFFFFFE03FF01FF00FFFFFFFFFFFFBC
S1130A40FFFE03FF01FF00FFFFFFFFFFFFFFFE03A9
S1130A50FF01FF00FFFFFFFFFFFFFFFE03FF01FF9A
S1130A6000FFFFFFFFFFFFFFFE03FF01FF00FFFF8B
S1130A70FFFFFFFFFFFE03FF01FF00FFFFFFFFFF7C
S1130A80FFFFFE03FF01FF00FFFFFFFFFFFFFFFE6D
S1130A9003FF01FF00FFFFFFFFFFFFFFFE03FF0156
S1130AA0FF00FFFFFFFFFFFFFFFE03FF01FF00FF4B
S1130AB0FFFFFFFFFFFFFE03FF01FF00FFFFFFFF3C
S1130AC0FFFFFFFE03FF01FF00FFFFFFFFFFFFFF2C
S1130AD0FE03FF01FF00FFFFFFFFFFFFFFFE03FF19
S1130AE001FF00FFFFFFFFFFFFFFFE03FF01FF0009
S1130AF0FFFFFFFFFFFFFFFE03FF01FF00FFFFFFFC
S1130B00FFFFFFFFFE03FF01FF00FFFFFFFFFFFFEB
S1130B10FFFE03FF01FF00FFFFFFFFFFFFFFFE03D8
S1130B20FF01FF00FFFFFFFFFFFFFFFE00000000CB
S1130B3000FFFFFFFFFFFFFFFE0000000000FFFFBC
S1130B40FFFFFFFFFFFE0000000000FFFFFFFFFFAD
S1130B50FFFFFE0000000000FFFFFFFFFFFFFFFE9E
S1130B600000000000FFFFFFFFFFFFFFFE0000008A
S1130B700000FFFFFFFFFFFFFFFE0000000000FF7B
S1130B80FFFFFFFFFFFFFE0000000000FFFFFFFF6D
S1130B90FFFFFFFFFFFFFFFFFFFFFFFFFFFFFFFF61
S1130BA0FFFFFFFFFFFFFFFFFFFFFFFFFFFFFFFF51
S1130BB0FFFFFFFFFFFFFFFFFFFFFFFFFFFFFFFF41
S1130BC0FFFFFFFFFFFFFFFFFFFFFFFFFFFFFFFF31
S1130BD0FFFFFFFFFFFFFFFFFFFFFFFFFFFFFFFF21
S1130BE0FFFFFFFFFFFFFFFFFFFFFFFFFFFFFFFF11
S1130BF0FFFFFFFFFFFFFFFFFFFFFFFFFFFFFFFF01
S1130C00FFFFFFFFFFFFFFFFFFFFFFFFFFFFFFFFF0
S1130C10FFFFFFFFFFFFFFFFFFFFFFFFFFFFFFFFE0
S1130C20FFFFFEFFFFFFFFFFFFFFFFFFFFFFFFFED2
S1130C307FFFFFFFFFFFFFFFFFFFFFFFFE3FFFFF01
S1130C40FFFFFFFFFFFFFFFFFFFE0FFFFFFFFFFFA1
S1130C50FFFFFFFFFFFFFE07FFFFFFFFFFFFFFFF99
S1130C60FFFFFFFE03FFFFFFFFFFFFFFFFFFFFFF8D
S1130C70FE00FFFFFFFFFFFFFFFFFFFFFFFE007F00
S1130C80FFFFFFFFFFFFFFFFFFFFFE001FFFFFFF50
S1130C90FFFFFFFFFFFFFFFE000FFFFFFFFFFFFF50
S1130CA0FFFFFFFFFF8007FFFFFFFFFFFFFFFFFFC7
S1130CB0FFFFC001FFFFFFFFFFFFFFFFFFFFFFE09C
S1130CC000FFFFFFFFFFFFFFFFFFFFFFF8007FFFB5
S1130CD0FFFFFFFFFFFFFFFFFFFC001FFFFFFFFF02
S1130CE0FFFFFFFFFFFFFE000FFFFFFFFFFFFFFF00
S1130CF0FFFFFFFF8003FFFFFFFFFFFFFFFFFFFF7B
S1130D00FFC001FFFFFFFFFFFFFFFFFFFFFFF0003A
S1130D10FFFFFFFFFFFFFFFFFFFFFFF8000000FFE3
S1130D20FFFFFFFFFFFFFFFFFC000000FFFFFFFFCF
S1130D30FFFFFFFFFFFF000000FFFFFFFFFFFFFFBC
S1130D40FFFFFF800000FFFFFFFFFFFFFFFFFFFF2C
S1130D50000000FFFFFFFFFFFFFFFFFFFC0000009C
S1130D60FFFFFFFFFFFFFFFFFFF8000000FFFFFF93
S1130D70FFFFFFFFFFFFE0000000FFFFFFFFFFFF9B
S1130D80FFFFFFC001FFFFFFFFFFFFFFFFFFFFFFAC
S1130D908003FFFFFFFFFFFFFFFFFFFFFE0007FFD2
S1130DA0FFFFFFFFFFFFFFFFFFFC001FFFFFFFFF31
S1130DB0FFFFFFFFFFFFF8003FFFFFFFFFFFFFFF05
S1130DC0FFFFFFE000FFFFFFFFFFFFFFFFFFFFFF4D
S1130DD0C001FFFFFFFFFFFFFFFFFFFFFF8003FFD7
S1130DE0FFFFFFFFFFFFFFFFFFFE000FFFFFFFFFFF
S1130DF0FFFFFFFFFFFFFE001FFFFFFFFFFFFFFFDF
S1130E00FFFFFFFE003FFFFFFFFFFFFFFFFFFFFFAE
S1130E10FE00FFFFFFFFFFFFFFFFFFFFFFFE01FFDD
S1130E20FFFFFFFFFFFFFFFFFFFFFE03FFFFFFFFCB
S1130E30FFFFFFFFFFFFFFFE0FFFFFFFFFFFFFFFAF
S1130E40FFFFFFFFFE1FFFFFFFFFFFFFFFFFFFFF8F
S1130E50FFFE3FFFFFFFFFFFFFFFFFFFFFFFFEFF60
S1130E60FFFFFFFFFFFFFFFFFFFFFFFFFFFFFFFF8E
S1130E70FFFFFFFFFFFFFFFFFFFFFFFFFFFFFFFF7E
S1130E80FFFFFFFFFFFFFFFFFFFFFFFFFFFFFFFF6E
S1130E90FFFFFFFFFFFFFFFFFFFFFFFFFFFFFFFF5E
S1130EA0FFFFFFFFFFFFFFFFFFFFFFFFFFFFFFFF4E
S1130EB0FFFFFFFFFFFFFFFFFFFFFFFFFFFFFFFF3E
S1130EC0FFFFFFFFFFFFFFFFFFFFFFFFFFFFFFFF2E
S1130ED0FFFFFFFFFFFFFFFFFFFFFFFFFFFFFFFF1E
S1130EE0FFFFFFFFFFFFFFFFFFFFFFFFFFFFFFFF0E
S1130EF0FFFFFFFFFFFFFFFFFFFFFFFFFFFFFFFFFE
S1130F00FFFFFFFFFFFFFFFFFFFFFFFFFFFFFFFFED
S1130F10FFFFFFFFFE0000000000FFFFFFFFFFFFD9
S1130F20FFFE0000000000FFFFFFFFFFFFFFFE00C9
S1130F3000000000FFFFFFFFFFFFFFFE00000000B6
S1130F4000FFFFFFFFFFFFFFFE0000000000FFFFA8
S1130F50FFFFFFFFFFFE0000000000FFFFFFFFFF99
S1130F60FFFFFE0000000000FFFFFFFFFFFFFFFE8A
S1130F700000000000FFFFFFFFFFFFFFFFFFFE0177
S1130F80FFFFFFFFFFFFFFFFFFFFFFFE01FFFFFF6C
S1130F90FFFFFFFFFFFFFFFFFE01FFFFFFFFFFFF5C
S1130FA0FFFFFFFFFFFE01FFFFFFFFFFFFFFFFFF4C
S1130FB0FFFFFE01FFFFFFFFFFFFFFFFFFFFFFFE3D
S1130FC001FFFFFFFFFFFFFFFFFFFFFFFE01FFFF2A
S1130FD0FFFFFFFFFFFFFFFFFFFE01FFFFFFFFFF1C
S1130FE0FFFFFFFFFFFFFE01FFFFFFFFFFFFFFFF0C
S1130FF0FFFFFFFE01FFFFFFFFFFFFFFFFFFFFFFFC
S1131000FE01FFFFFFFFFFFFFFFFFFFFFFFE01FFEA
S1131010FFFFFFFFFFFFFFFFFFFFFE01FFFFFFFFDB
S1131020FFFFFFFFFFFFFFFE01FFFFFFFFFFFFFFCB
S1131030FFFFFFFFFE01FFFFFFFFFFFFFFFFFFFFBB
S1131040FFFE01FFFFFFFFFFFFFFFFFFFFFFFE01AA
S1131050FFFFFFFFFFFFFFFFFFFFFFFE01FFFFFF9B
S1131060FFFFFFFFFFFFFFFFFE01FFFFFFFFFFFF8B
S1131070FFFFFFFFFFFE01FFFFFFFFFFFFFFFFFF7B
S1131080FFFFFE01FFFFFFFFFFFFFFFFFFFFFFFE6C
S113109001FFFFFFFFFFFFFFFFFFFFFFFE01FFFF59
S11310A0FFFFFFFFFFFFFFFFFFFE01FFFFFFFFFF4B
S11310B0FFFFFFFFFE0000000000FFFFFFFFFFFF38
S11310C0FFFE0000000000FFFFFFFFFFFFFFFE0028
S11310D000000000FFFFFFFFFFFFFFFE0000000015
S11310E000FFFFFFFFFFFFFFFE0000000000FFFF07
S11310F0FFFFFFFFFFFE0000000000FFFFFFFFFFF8
S1131100FFFFFE0000000000FFFFFFFFFFFFFFFEE8
S11311100000000000FFFFFFFFFFFFFFFFFFFFFFD6
S1131120FFFFFFFFFFFFFFFFFFFFFFFFFFFFFFFFCB
S1131130FFFFFFFFFFFFFFFFFFFFFFFFFFFFFFFFBB
S113114011241FBECFEFD0E1DEBFCDBF1CE0A0E075
S1131150B1E0EEE0F7E100E00BBF02C007900D92B2
S1131160A232B107D9F7B8D2D0C20C94000079D218
S1131170019731F06AE070E080E090E0F8D1F7CFB9
S11311800895CF93C82F81E090E05FD280E090E093
S113119056D264EF71E080E090E0DAD18C2F4ED229
S11311A064EF71E080E090E0D3D181E090E0CF91F2
S11311B046C2CF93C82F80E090E047D280E090E011
S11311C03ED264EF71E080E090E0C2D18C2F36D241
S11311D064EF71E080E090E0BBD181E090E02FD239
S11311E081E090E0CF9131C28F929F92AF92BF92F3
S11311F0CF92DF92EF92FF92CF93DF937C014A016B
S11312005B0180E090E01BD264EF71E080E090E04D
S11312109FD1E701C12CD12C7601C814D904EA046A
S1131220FB0441F089910AD28FEFC81AD80AE80A60
S1131230F80AF3CF64EF71E080E090E089D181E0B7
S113124090E0DF91CF91FF90EF90DF90CF90BF902F
S1131250AF909F908F90F3C1CF93DF9300D0CDB721
S1131260DEB78FEC89838DE88A8365E070E080E0E7
S113127090E07DD181E090E0EED165E070E080E027
S113128090E075D180E090E0E6D16AE070E080E023
S113129090E06DD181E090E0DED165E070E080E027
S11312A090E065D181E090E0CAD161E070E080E037
S11312B090E05DD180E07DDF8EE063DF58DF85EE76
S11312C078DF89E15EDF80EE74DF82E05ADF80E060
S11312D070DF42E050E060E070E0CE01019684DF10
S11312E00F900F90DF91CF910895E0E0F1E08081BD
S11312F0809581938BE0E43CF807C9F70895ECE707
S1131300F6E0A0E0B1E084918D9331968BE0A43CAB
S1131310B807C9F70895CF93DF9380E14ADF44EC1F
S11313205AE060E070E080E091E05EDF83E141DF5D
S113133080E090E084D164EF71E080E090E008D137
S1131340C0E0D0E080E07AD12196C43C8AE0D8079E
S1131350C9F764EF71E080E090E0FAD081E090E0BA
S1131360DF91CF916CC103DF84E023DF80E009DFEC
S1131370FEDE82E11EDF80E004DFF9CE82E019DFC9
S1131380F6CE813029F0823031F455E54AEA05C0C1
S11313905FEF4FEF02C050E040E020E031E080E03A
S11313A090E080FD02C0A52F01C0A42FF90160E0E8
S11313B070E0A1936F5F7F4F6D307105D1F7019697
S11313C0235F3F4F843D910561F70895683668F5C2
S11313D093ED981B892F943D40F5E62FE695E6950D
S11313E0E695F0E09DE0899FE00DF11D11246095E4
S11313F06770442319F0413069F00895E050FF4FBD
S113140081E090E001C0880F6A95EAF780959081A9
S113141089230AC0E050FF4F81E090E001C0880FAB
S11314206A95EAF79081892B80830895EF92FF9261
S11314300F931F93CF93DF93D82F162FE42EF22E02
S1131440C0E0CE1571F0402F612F8D2FBFDFFF203C
S113145029F081E0F81203C01F5F01C0DF5FCF5F96
S1131460F0CFDF91CF911F910F91FF90EF900895EE
S11314708F929F92AF92BF92CF92DF92EF92FF92A0
S11314800F931F93CF93DF93211129C0A02EB62E63
S1131490082F405280E1489FE0011124C12CD12C37
S11314A088E0882E800E9B2C9C0CFE01EC0DFD1D0B
S11314B0E457FF4F1491F02E17FF02C04A2D01C0CC
S11314C04E2D692D8F2D82DF110FF3948F10F4CFE1
S11314D08FEFC81AD80A80E1C816D10421F788E032
S11314E0DF91CF911F910F91FF90EF90DF90CF90FC
S11314F0BF90AF909F908F900895BF92CF92DF924C
S1131500EF92FF920F931F93CF93DF93C82FD62FA1
S1131510122FF02EBE2C6A01F60141916F0180EE6C
S1131520840F8F3540F4EB2C0F2D212F6D2F8C2F32
S11315309FDFC80FF1CF4111EFCF8C2FDF91CF91F7
S11315401F910F91FF90EF90DF90CF90BF9008957F
S1131550611571058105910549F022E02A95F1F79D
S113156000C06150710981099109F2CF0895611594
S113157071058105910559F0EFECF7E03197F1F72A
S113158000C000006150710981099109F0CF0895EC
S113159083E887BBC198C798089580ED82B91C98E9
S11315A01F9A1E9AC09A0895C198000087FF02C02E
S11315B0C79A01C0C798C19A0000C198000086FF6D
S11315C002C0C79A01C0C798C19A0000C198000020
S11315D085FF02C0C79A01C0C798C19A0000C1988C
S11315E0000084FF02C0C79A01C0C798C19A0000D6
S11315F0C198000083FF02C0C79A01C0C798C19A6E
S11316000000C198000082FF02C0C79A01C0C798B9
S1131610C19A0000C198000081FF02C0C79A01C0AE
S1131620C798C19A0000C198000080FF02C0C79A01
S113163001C0C798C19A0000C1980895B5CF892BFD
S113164011F0C09A0895C0980895892B11F01F9A3B
S113165008951F980895892B11F01E9A08951E98D5
S1131660089581B185FB882780F990E0089547DECD
S113167052DE79CEEF920F9381E083DE00E020E02A
S113168044ED61E080E0D2DE20E044ED63E080E000
S1131690CDDEEE24E39420E04EEC5BE06AE080E0F3
S11316A02CDF20E049E05CE06EE180E026DF20E012
S11316B045E15CE062E380E020DF20E044ED63E6A6
S11316C080E0B4DE20E044ED65E680E0AFDE23DEBA
S11316D04ADE0F91EF9052CE5BDF5FDFBDDDC7DFE7
S11316E068EB7BE080E090E042DFC4DF68EB7BE006
S11316F080E090E03CDFF9DD0EDE35DE3FDE68EBB6
S11117007BE080E090E033DFEACFF894FFCF87
S113170EFFFFFFFFFFFFFFFFFFFFFFFFFFFFFFFFD7
S113171EFFFFFFFFFFFFFFFFFFFFFFFFFFFFFFFFC7
S113172EFFFFFFFFFFFFFFFFFFFFFFFFFFFFFFFFB7
S113173EFFFFFFFFFFFFFFFFFFFFFFFFFFFFFFFFA7
S113174EFFFFFFFFFE03FFFFFF00FFFFFFFFFFFF93
S113175EFFFE03FE01FF00FFFFFFFFFFFFFFFE037F
S113176EFE01FF00FFFFFFFFFFFFFFFE03FE01FF71
S113177E00FFFFFFFFFFFFFFFE03FE01FF00FFFF61
S113178EFFFFFFFFFFFE03FE01FF00FFFFFFFFFF52
S113179EFFFFFE03FE01FF00FFFFFFFFFFFFFFFE43
S11317AE03FE01FF00FFFFFFFFFFFFFFFE03FE012D
S11317BEFF00FFFFFFFFFFFFFFFE03FE01FF00FF21
S11317CEFFFFFFFFFFFFFE03FE01FF00FFFFFFFF12
S11317DEFFFFFFFE03FE01FF00FFFFFFFFFFFFFF02
S11317EEFE03FE01FF00FFFFFFFFFFFFFFFE03FEF0
S11317FE01FF00FFFFFFFFFFFFFFFE03FE01FF00DF
S113180EFFFFFFFFFFFFFFFE03FE01FF00FFFFFFD1
S113181EFFFFFFFFFE03FE01FF00FFFFFFFFFFFFC1
S113182EFFFE03FE01FF00FFFFFFFFFFFFFFFE03AE
S113183EFE01FF00FFFFFFFFFFFFFFFE03FE01FFA0
S113184E00FFFFFFFFFFFFFFFE03FE01FF00FFFF90
S113185EFFFFFFFFFFFE03FE01FF00FFFFFFFFFF81
S113186EFFFFFE03FE01FF00FFFFFFFFFFFFFFFE72
S113187E03FE01FF00FFFFFFFFFFFFFFFE03FE015C
S113188EFF00FFFFFFFFFFFFFFFE03FE01FF00FF50
S113189EFFFFFFFFFFFFFE03FE01FF00FFFFFFFF41
S11318AEFFFFFFFE03FE01FF00FFFFFFFFFFFFFF31
S11318BEFE03FE01FF00FFFFFFFFFFFFFFFE03FE1F
S11318CE01FF00FFFFFFFFFFFFFFFE03FE01FF000E
S11318DEFFFFFFFFFFFFFFFE0000000000FFFFFF02
S11318EEFFFFFFFFFE0000000000FFFFFFFFFFFFF2
S11318FEFFFE0000000000FFFFFFFFFFFFFFFE00E2
S113190E00000000FFFFFFFFFFFFFFFE00000000CE
S113191E00FFFFFFFFFFFFFFFE0000000000FFFFC0
S113192EFFFFFFFFFFFE0000000000FFFFFFFFFFB1
S113193EFFFFFE0000000000FFFFFFFFFFFFFFFFA1
S113194EFFFFFFFFFFFFFFFFFFFFFFFFFFFFFFFF95
S113195EFFFFFFFFFFFFFFFFFFFFFFFFFFFFFFFF85
S113196EFFFFFFFFFFFFFFFFFFFFFFFFFFFFFFFF75
S113197EFFFFFFFFFFFFFFFFFFFFFFFFFFFFFFFF65
S113198EFFFFFFFFFFFFFFFFFFFFFFFFFFFFFFFF55
S113199EFFFFFFFFFFFFFFFFFFFFFFFFFFFFFFFF45
S11319AEFFFFFFFFFFFFFFFFFFFFFFFFFFFFFFFF35
S11319BEFFFFFFFFFFFFFFFFFFFFFFFFFFFFFFFF25
S11319CEFFFFFFFFFFFFFFFFFFFFFFFFFFFFFFFF15
S11319DEFFFFFFFFFFFFFFFFFFFFFFFFFFFFFFFF05
S11319EEFFFFFFFFFFFFFFFFFFFFFFFFFFFFFFFFF5
S11319FEFFFFFFFFFFFFFFFFFFFFFFFFFFFFFFFFE5
S1131A0EFFFFFFFFFFFFFFFFFFFFFFFFFFFFFFFFD4
S1131A1EC000780007FFFFFFFFFFFFFFFF800030CD
S1131A2E0003FFFFFFFFFFFFFFFF0000000001FFA9
S1131A3EFFFFFFFFFFFFFE0000000001FFFFFFFF9F
S1131A4EFFFFFFFE0000000001FFFFFFFFFFFFFF8F
S1131A5EFE0000000000FFFFFFFFFFFFFFFE00007F
S1131A6E000000FFFFFFFFFFFFFFFE00000000006D
S1131A7EFFFFFFFFFFFFFFFE03FF01FF00FFFFFF5E
S1131A8EFFFFFFFFFE03FF01FF00FFFFFFFFFFFF4E
S1131A9EFFFE03FF01FF00FFFFFFFFFFFFFFFE033B
S1131AAEFF01FF00FFFFFFFFFFFFFFFE03FF01FF2C
S1131ABE00FFFFFFFFFFFFFFFE03FF01FF00FFFF1D
S1131ACEFFFFFFFFFFFE03FF01FF00FFFFFFFFFF0E
S1131ADEFFFFFE03FF01FF00FFFFFFFFFFFFFFFEFF
S1131AEE03FF01FF00FFFFFFFFFFFFFFFE03FF01E8
S1131AFEFF00FFFFFFFFFFFFFFFE03FF01FF00FFDD
S1131B0EFFFFFFFFFFFFFE03FF01FF00FFFFFFFFCD
S1131B1EFFFFFFFE03FF01FF00FFFFFFFFFFFFFFBD
S1131B2EFE03FF01FF00FFFFFFFFFFFFFFFE03FFAA
S1131B3E01FF00FFFFFFFFFFFFFFFE03FF01FF009A
S1131B4EFFFFFFFFFFFFFFFE03FF01FF00FFFFFF8D
S1131B5EFFFFFFFFFE03FF01FF00FFFFFFFFFFFF7D
S1131B6EFFFE03FF01FF00FFFFFFFFFFFFFFFE036A
S1131B7EFF01FF00FFFFFFFFFFFFFFFE03FF01FF5B
S1131B8E00FFFFFFFFFFFFFFFE03FF01FF00FFFF4C
S1131B9EFFFFFFFFFFFE03FF01FF00FFFFFFFFFF3D
S1131BAEFFFFFE03FF01FF00FFFFFFFFFFFFFFFE2E
S1131BBE0000000000FFFFFFFFFFFFFFFE0000001C
S1131BCE0000FFFFFFFFFFFFFFFE0000000000FF0D
S1131BDEFFFFFFFFFFFFFE0000000000FFFFFFFFFF
S1131BEEFFFFFFFE0000000000FFFFFFFFFFFFFFEF
S1131BFEFE0000000000FFFFFFFFFFFFFFFE0000DE
S1131C0E000000FFFFFFFFFFFFFFFE0000000000CB
S1131C1EFFFFFFFFFFFFFFFFFFFFFFFFFFFFFFFFC2
S1131C2EFFFFFFFFFFFFFFFFFFFFFFFFFFFFFFFFB2
S1131C3EFFFFFFFFFFFFFFFFFFFFFFFFFFFFFFFFA2
S1131C4EFFFFFFFFFFFFFFFFFFFFFFFFFFFFFFFF92
S1131C5EFFFFFFFFFFFFFFFFFFFFFFFFFFFFFFFF82
S1131C6EFFFFFFFFFFFFFFFFFFFFFFFFFFFFFFFF72
S1131C7EFFFFFFFFFFFFFFFFFFFFFFFFFFFFFFFF62
S1131C8EFFFFFFFFFFFFFFFFFFFFFFFFFFFFFFFF52
S1131C9EFFFFFFFFFFFFFFFFFFFFFFFFFFFFFFFF42
S1131CAEFFFFFFFFFFFFFEFFFFFFFFFFFFFFFFFF33
S1131CBEFFFFFFFE7FFFFFFFFFFFFFFFFFFFFFFFA3
S1131CCEFE3FFFFFFFFFFFFFFFFFFFFFFFFE0FFFC4
S1131CDEFFFFFFFFFFFFFFFFFFFFFE07FFFFFFFFFB
S1131CEEFFFFFFFFFFFFFFFE03FFFFFFFFFFFFFFEF
S1131CFEFFFFFFFFFE00FFFFFFFFFFFFFFFFFFFFE2
S1131D0EFFFE007FFFFFFFFFFFFFFFFFFFFFFE0051
S1131D1E1FFFFFFFFFFFFFFFFFFFFFFE000FFFFF91
S1131D2EFFFFFFFFFFFFFFFFFF8007FFFFFFFFFF28
S1131D3EFFFFFFFFFFFFC001FFFFFFFFFFFFFFFFDE
S1131D4EFFFFFFE000FFFFFFFFFFFFFFFFFFFFFFAF
S1131D5EF8007FFFFFFFFFFFFFFFFFFFFFFC001FE9
S1131D6EFFFFFFFFFFFFFFFFFFFFFE000FFFFFFF61
S1131D7EFFFFFFFFFFFFFFFF8003FFFFFFFFFFFFDC
S1131D8EFFFFFFFFFFC001FFFFFFFFFFFFFFFFFF8E
S1131D9EFFFFF000FFFFFFFFFFFFFFFFFFFFFFF856
S1131DAE000000FFFFFFFFFFFFFFFFFFFC0000002E
S1131DBEFFFFFFFFFFFFFFFFFFFF000000FFFFFF1E
S1131DCEFFFFFFFFFFFFFF800000FFFFFFFFFFFF8E
S1131DDEFFFFFFFF000000FFFFFFFFFFFFFFFFFFFE
S1131DEEFC000000FFFFFFFFFFFFFFFFFFF80000F6
S1131DFE00FFFFFFFFFFFFFFFFFFE0000000FFFFFC
S1131E0EFFFFFFFFFFFFFFC001FFFFFFFFFFFFFF0D
S1131E1EFFFFFFFF8003FFFFFFFFFFFFFFFFFFFF3B
S1131E2EFE0007FFFFFFFFFFFFFFFFFFFFFC001F8A
S1131E3EFFFFFFFFFFFFFFFFFFFFF8003FFFFFFF66
S1131E4EFFFFFFFFFFFFFFE000FFFFFFFFFFFFFFAE
S1131E5EFFFFFFFFC001FFFFFFFFFFFFFFFFFFFFBD
S1131E6EFF8003FFFFFFFFFFFFFFFFFFFFFE000FDB
S1131E7EFFFFFFFFFFFFFFFFFFFFFE001FFFFFFF40
S1131E8EFFFFFFFFFFFFFFFE003FFFFFFFFFFFFF10
S1131E9EFFFFFFFFFE00FFFFFFFFFFFFFFFFFFFF40
S1131EAEFFFE01FFFFFFFFFFFFFFFFFFFFFFFE032C
S1131EBEFFFFFFFFFFFFFFFFFFFFFFFE0FFFFFFF11
S1131ECEFFFFFFFFFFFFFFFFFE1FFFFFFFFFFFFFF1
S1131EDEFFFFFFFFFFFE3FFFFFFFFFFFFFFFFFFFC1
S1131EEEFFFFFEFFFFFFFFFFFFFFFFFFFFFFFFFFF1
S1131EFEFFFFFFFFFFFFFFFFFFFFFFFFFFFFFFFFE0
S1131F0EFFFFFFFFFFFFFFFFFFFFFFFFFFFFFFFFCF
S1131F1EFFFFFFFFFFFFFFFFFFFFFFFFFFFFFFFFBF
S1131F2EFFFFFFFFFFFFFFFFFFFFFFFFFFFFFFFFAF
S1131F3EFFFFFFFFFFFFFFFFFFFFFFFFFFFFFFFF9F
S1131F4EFFFFFFFFFFFFFFFFFFFFFFFFFFFFFFFF8F
S1131F5EFFFFFFFFFFFFFFFFFFFFFFFFFFFFFFFF7F
S1131F6EFFFFFFFFFFFFFFFFFFFFFFFFFFFFFFFF6F
S1131F7EFFFFFFFFFFFFFFFFFFFFFFFFFFFFFFFF5F
S1131F8EFFFFFFFFFFFFFFFFFFFFFFFFFFFFFFFF4F
S1131F9EFFFFFFFFFFFFFFFFFE0000000000FFFF3B
S1131FAEFFFFFFFFFFFE0000000000FFFFFFFFFF2B
S1131FBEFFFFFE0000000000FFFFFFFFFFFFFFFE1C
S1131FCE0000000000FFFFFFFFFFFFFFFE00000008
S1131FDE0000FFFFFFFFFFFFFFFE0000000000FFF9
S1131FEEFFFFFFFFFFFFFE0000000000FFFFFFFFEB
S1131FFEFFFFFFFE0000000000FFFFFFFFFFFFFFDB
S113200EFFFFFE01FFFFFFFFFFFFFFFFFFFFFFFECE
S113201E01FFFFFFFFFFFFFFFFFFFFFFFE01FFFFBB
S113202EFFFFFFFFFFFFFFFFFFFE01FFFFFFFFFFAD
S113203EFFFFFFFFFFFFFE01FFFFFFFFFFFFFFFF9D
S113204EFFFFFFFE01FFFFFFFFFFFFFFFFFFFFFF8D
S113205EFE01FFFFFFFFFFFFFFFFFFFFFFFE01FF7C
S113206EFFFFFFFFFFFFFFFFFFFFFE01FFFFFFFF6D
S113207EFFFFFFFFFFFFFFFE01FFFFFFFFFFFFFF5D
S113208EFFFFFFFFFE01FFFFFFFFFFFFFFFFFFFF4D
S113209EFFFE01FFFFFFFFFFFFFFFFFFFFFFFE013C
S11320AEFFFFFFFFFFFFFFFFFFFFFFFE01FFFFFF2D
S11320BEFFFFFFFFFFFFFFFFFE01FFFFFFFFFFFF1D
S11320CEFFFFFFFFFFFE01FFFFFFFFFFFFFFFFFF0D
S11320DEFFFFFE01FFFFFFFFFFFFFFFFFFFFFFFEFE
S11320EE01FFFFFFFFFFFFFFFFFFFFFFFE01FFFFEB
S11320FEFFFFFFFFFFFFFFFFFFFE01FFFFFFFFFFDD
S113210EFFFFFFFFFFFFFE01FFFFFFFFFFFFFFFFCC
S113211EFFFFFFFE01FFFFFFFFFFFFFFFFFFFFFFBC
S113212EFE01FFFFFFFFFFFFFFFFFFFFFFFE01FFAB
S113213EFFFFFFFFFFFFFFFFFE0000000000FFFF99
S113214EFFFFFFFFFFFE0000000000FFFFFFFFFF89
S113215EFFFFFE0000000000FFFFFFFFFFFFFFFE7A
S113216E0000000000FFFFFFFFFFFFFFFE00000066
S113217E0000FFFFFFFFFFFFFFFE0000000000FF57
S113218EFFFFFFFFFFFFFE0000000000FFFFFFFF49
S113219EFFFFFFFE0000000000FFFFFFFFFFFFFF39
S11321AEFFFFFFFFFFFFFFFFFFFFFFFFFFFFFFFF2D
S11321BEFFFFFFFFFFFFFFFFFFFFFFFFFFFFFFFF1D
S11321CEFFFFFFFF464F4E542054455354004142E7
S11321DE434445464748494A4B4C4D4E4F50515245
S11321EE535455565758595A005549443A3535376C
S11321FE323338300044657369676E656400427922
S113220E00737A6F6E67656E003031323334353653
S113221E3738393000214023245E262A28297E3A75
S105222E3B006F
S9030000FC
